:020000040801F1
:100000001009002099010108F9120108690E010880
:10001000F51201082D030108E71A0108000000008D
:100020000000000000000000000000005B15010857
:10003000F50901080000000089130108B101010859
:10004000B3010108B3010108B3010108B3010108BC
:10005000B3010108B3010108B3010108B3010108AC
:10006000B3010108B3010108B3010108B30101089C
:10007000B3010108B3010108B3010108B30101088C
:10008000B3010108B3010108B3010108B30101087C
:1000900035040108B3010108B3010108B3010108E7
:1000A000B3010108B3010108B3010108B30101085C
:1000B000B301010885160108B3010108B301010865
:1000C000B3010108B3010108B3010108B30101083C
:1000D000B30101081D180108B3010108B3010108AB
:1000E000B3010108B3010108B3010108B30101081C
:1000F000B3010108B3010108B3010108B30101080C
:10010000B3010108B3010108B3010108B3010108FB
:10011000B3010108B3010108B3010108B3010108EB
:10012000B3010108B3010108B3010108B3010108DB
:10013000B3010108B3010108B3010108B3010108CB
:10014000B3010108B3010108B3010108B3010108BB
:10015000B3010108B3010108B3010108B3010108AB
:10016000B3010108B3010108B3010108B30101089B
:10017000B3010108B3010108B3010108B30101088B
:10018000B3010108DFF80CD000F02EF8004800475A
:10019000151E010810090020064880470648004740
:1001A000FEE7FEE7FEE7FEE7FEE7FEE7FEE7FEE727
:1001B000FEE7FEE7291601088501010830B50B4668
:1001C000014600202022012409E021FA02F59D4287
:1001D00005D303FA02F5491B04FA02F52844151E5B
:1001E000A2F10102F1DC30BD064C074D06E0E068EB
:1001F00040F0010394E8070098471034AC42F6D36E
:10020000FFF7C4FFF01F01081020010821B1826828
:1002100042F00102826003E0826822F00102826003
:10022000704700000021084A1168084A1140D0E9CF
:1002300000231A4383681A43C3681A431143044ACC
:10024000C2F804137047000004230140E030FCFFB3
:100250000020014030B50246002000235068104CB9
:1002600020400D790C6844EA0524204350609068D2
:100270000C4C2040D1E903542C438D682C434D791C
:1002800044EA450420439060D06A20F470000C7D5D
:10029000641EE4B2234340EA0350D06230BD000044
:1002A000FFFEFFFCFDF7FFC000B58DB0012104206B
:1002B00001F06CF80121080201F0A8F803200B906E
:1002C0008DF8300000208DF833000BA9154800F0A0
:1002D00065FC0121080201F0A9F800214FF48070AB
:1002E00001F0A4F8002007900A9009904FF48030A4
:1002F000089007A8FFF796FF002001908DF80800EE
:100300008DF809000390059001208DF8180001A9CF
:100310000548FFF79FFF01210348FFF777FF0DB066
:1003200000BD0000000802400020014000BFFEE7C1
:1003300010B58AB004460121084601F027F80121D2
:10034000480601F043F809220B21384800F06EFC02
:1003500009220C21354800F069FC4FF4C050089088
:1003600002208DF824008DF8250000208DF826004D
:1003700001208DF8270008A92C4800F00FFC2C481C
:1003800000F0AAF800208DF81A008DF81B008DF8F7
:100390001C008DF81D008DF81E008DF81F008DF8D3
:1003A00016408DF817000B208DF8180001208DF8ED
:1003B00019000220ADF8140005A91D4800F035F918
:1003C00000208DF80E008DF80F0001208DF8100030
:1003D0000020ADF80400ADF80600ADF80800ADF857
:1003E0000A00ADF80C0001208DF8110001A800F002
:1003F0008FF8012202210E4800F00EF9012202219D
:100400000B4800F009F914208DF8000001208DF848
:10041000010000208DF8020001208DF803006846DD
:1004200000F06CFF00200AB010BD00000000024088
:100430000064004000B585B06A460021074800F01E
:100440007EF907480068401C054908600DF10B0063
:10045000009901F0B9FC05B000BD00000064004047
:10046000240000202DE9F04186B007468846154655
:1004700000240197002002908DF80C008DF80D00EB
:100480008DF80E5000BF06E018F804100DF10F00B3
:100490000155601C84B2AC42F6DB01A90D4800F0A6
:1004A000C6F90646002401E0601C84B231460948C2
:1004B00000F050FA18B940F6FF708442F4DB40F6C1
:1004C000FF70844203DB012006B0BDE8F08100200C
:1004D000FAE700000064004010B504460B4884426F
:1004E00009D10121480600F081FF00214FF0007082
:1004F00000F07CFF08E00121880600F077FF002172
:100500004FF0806000F072FF10BD000000640040FA
:1005100010B50021837A012202FA03F13D4A1268E4
:1005200042F001023B4B1A603A4A1C3212688A437D
:10053000384B1C331A60027BCAB9364A0C32126837
:100540008A43344B0C331A604288C38842EA03431F
:10055000304A4032847A42F834300288838842EA52
:1005600003432C4A4032847A02EBC4025360027B7C
:10057000012A19D1274A0C3212680A43254B0C3341
:100580001A604288038842EA0343224A4032847A4E
:1005900042F83430C288838842EA03431D4A40321D
:1005A000847A02EBC4025360C27A3AB9194A121D26
:1005B00012688A43174B1B1D1A6006E0154A121D6C
:1005C00012680A43134B1B1D1A60028932B9114A83
:1005D000143212688A430F4B14331A600289012ABD
:1005E00006D10C4A143212680A430A4B14331A60BB
:1005F000427B012A06D1074A1C3212680A43054B86
:100600001C331A60034A126822F00102014B1A607F
:1006100010BD0000006600401AB143690B434361FE
:1006200002E043698B434361704730B502460020C6
:100630000023146824F002041460146844F00104D8
:10064000146000E05B1C546804F001041CB94FF610
:10065000FF74A342F6D1546804F001040CB90020E1
:100660006CE08C79012C04D1146844F0800414608F
:1006700003E0146824F080041460CC79012C04D1C8
:10068000146844F04004146003E0146824F040044B
:1006900014600C7A012C04D1146844F02004146016
:1006A00003E0146824F0200414604C7A012C04D177
:1006B000146844F01004146003E0146824F010047B
:1006C00014608C7A012C04D1146844F0080414607E
:1006D00003E0146824F008041460CC7A012C04D1DF
:1006E000146844F00404146003E0146824F0040463
:1006F00014608C78A407CD7844EA05640D7944EA47
:1007000005444D7944EA05540D886D1E2C43D4618F
:10071000146824F001041460002300E05B1C54689A
:1007200004F001041CB14FF6FF74A342F6D15468E3
:1007300004F001040CB1002000E0012030BD10B530
:1007400000F5D87303EB01131B6803F00403137265
:10075000137A53B900F5D87303EB01131B6840F209
:10076000FF7404EA5353136009E000F5D87303EBF8
:1007700001131B686FF0604404EAD303536000F573
:10078000D87303EB01131B6803F00203537200F5E7
:10079000D87303EB01135B6803F00F03937200F54A
:1007A000D87303EB01135B681B0AD37400F5D8738D
:1007B00003EB01139B68D37200F5D87303EB0113AD
:1007C0009B681C0A147300F5D87303EB01139B6834
:1007D0001C0C547300F5D87303EB01139B681B0EBC
:1007E000937300F5D87303EB0113DB68D37300F543
:1007F000D87303EB0113DB681C0A147400F5D8737B
:1008000003EB0113DB681C0C547400F5D87303EB85
:100810000113DB681B0E937421B9C36843F02003F6
:10082000C36003E0036943F02003036110BD10B50A
:1008300002460020936803F08063B3F1806F00D11B
:1008400010E0936803F00063B3F1006F01D1012061
:1008500008E0936803F08053B3F1805F01D1022078
:1008600000E00420042874D002F5C07303EB0013E9
:100870001B6803F0010402F5C07303EB00131C6056
:100880000B7A7BB94B7A0C8843EA445302F5C07467
:1008900004EB00142468234302F5C07404EB001435
:1008A000236010E00B7A4C6843EAC4034C7A23437C
:1008B00002F5C07404EB00142468234302F5C074ED
:1008C00004EB001423608B7A03F00F038B7202F5A4
:1008D000C07303EB00135B6823F00F0402F5C073D1
:1008E00003EB00135C6002F5C07303EB00135B685D
:1008F0008C7A234302F5C07404EB001463608B7B95
:100900001C064B7B44EA03440B7B44EA0323CC7A6A
:10091000234302F5C07404EB0014A3608B7C1C0617
:100920004B7C44EA03440B7C44EA0323CC7B234303
:1009300002F5C07404EB0014E36002F5C07303EB2E
:1009400000131B6843F0010402F5C07303EB0013AE
:100950001C6010BD10B50246002321B1012907D04B
:1009600002290FD109E090681D4C00EA04030BE056
:1009700090681C4C00EA040306E090681A4C00EAF8
:10098000040301E0002300BF00BF184C181BA34262
:1009900016D007DC83B16FF08060184470B1022874
:1009A00018D111E0B0F5007F10D0114C204448B1AF
:1009B000B0F5003F0ED10BE002230DE000230BE069
:1009C000002309E0002307E0012305E0012303E001
:1009D000012301E0002300BF00BFD8B210BD00001A
:1009E00003000004000300080000031000010008D9
:1009F0000001FFF77047000051B18200A2F1C04230
:100A0000126842F001038200A2F1C042136009E0C3
:100A10008200A2F1C0421268034B1A408300A3F186
:100A2000C0431A6070470000FEFF0F00D0E90112BA
:100A30001143C2681143026911434269114382693B
:100A40001143C2691143026A1143426A1143826A27
:100A50001143C26A1143026B114302689200A2F172
:100A6000C0421160816808290BD101688900A1F199
:100A7000C041096841F0400201688900A1F1C0410C
:100A80000A60416B0968426B526841EA0211426B8D
:100A9000926841EA0221426B928941EA0241426B2B
:100AA000128A41EA0251426B127D41EA0261426BB5
:100AB000926911430268521C9200A2F1C042116077
:100AC000C16AB1F5804F1BD1816B0968826B526896
:100AD00041EA0211826B926841EA0221826B128A1A
:100AE00041EA0251826B127D41EA0261826B926996
:100AF000114302689200A2F1C042C2F8041107E05B
:100B00006FF0704201688900A1F1C041C1F8042171
:100B1000704700B597B00121084600F047FC02205D
:100B20000190082002900390002004900590069008
:100B30004FF0805007900420089000200990082072
:100B40000A9010200B9000200C900E900D900F90AA
:100B500010904FF480501190002012901390149038
:100B600001A81590169008A8FFF760FF0121042046
:100B7000FFF742FF17B000BD10B509220449054830
:100B800000F0D8FC024904A000F0B0FF10BD000046
:100B9000000100200400040825730000F0B50A4697
:100BA00000210023002400BF3DE0012505FA01F3E8
:100BB000156805EA03049C4234D105684F000326FA
:100BC000BE40B543056015794E00B5400668354313
:100BD00005601579012D02D01579022D16D1856891
:100BE0004F000326BE40B543856055794E00B540A1
:100BF000866835438560456801268E40B54345606B
:100C0000456896798E40B6B235434560C5684F0059
:100C10000326BE40B543C560D5794E00B540C668D1
:100C20003543C560491C1029BFD3F0BDF0B5002382
:100C300000244D07ED0E02FA05F3CE1000F1200559
:100C400055F826504E07F70E0F26BE40B543CF107D
:100C500000F1200646F82750CE1000F1200555F887
:100C6000265045EA0304CE1000F1200545F8264041
:100C7000F0BD418370470183704700001CB501211E
:100C8000042000F083FB0121082000F07FFB0121FC
:100C9000202000F07BFB0121102000F077FB0121D8
:100CA000402000F073FB0C20009002208DF804001F
:100CB00000208DF8060003208DF8050000208DF837
:100CC000070069466348FFF769FF04200090012090
:100CD0008DF8040000208DF8060003208DF8050033
:100CE00000208DF8070069465B48FFF757FF44F284
:100CF000A000009002208DF8040000208DF806006E
:100D000003208DF8050000208DF807006946524841
:100D1000FFF744FF47F6BF00009002208DF8040063
:100D200000208DF8060003208DF8050000208DF8C6
:100D3000070069464948FFF731FF48F2600000901C
:100D400002208DF8040000208DF8060003208DF8A5
:100D5000050000208DF8070069464148FFF71EFF97
:100D60000320009002208DF8040000208DF806007A
:100D700003208DF8050000208DF8070069463948EA
:100D8000FFF70CFF0C2200213448FFF74FFF0C2225
:100D900001213248FFF74AFF0C2202212F48FFF7BA
:100DA00045FF0C2203212D48FFF740FF0C220421B0
:100DB0002A48FFF73BFF0C2205212848FFF736FFA2
:100DC0000C2211462548FFF731FF0C220D21234844
:100DD000FFF72CFF0C220E212048FFF727FF0C22E3
:100DE0000F211E48FFF722FF0C220E211A48FFF7A1
:100DF0001DFF0C2205211848FFF718FF2021164877
:100E0000FFF739FF80211548FFF735FF20211248F1
:100E1000FFF72FFF80211048FFF72BFF04210D481B
:100E2000FFF727FF01210F48FFF723FF4FF4004191
:100E30000B48FFF71EFF4FF400610848FFF71BFF48
:100E400008210448FFF717FF02210648FFF713FFA8
:100E50001CBD000000080240000C024000140240CB
:100E6000001002400018024000BFFEE70120304998
:100E7000A1F84C00A1F84E000020A1F84C00A1F808
:100E80004E000120A1F8CC00A1F8CE000020A1F86E
:100E9000CC00A1F8CE001020264908800AE00020EE
:100EA0002349244A128821F8120022480088401C55
:100EB000204908801F4800882028F0DB50201D4969
:100EC00008800AE000201A491A4A128821F8120004
:100ED00018480088401C1749088016480088602878
:100EE000F0DB6020134908800AE000201049114A15
:100EF000128821F812000F480088401C0D49088014
:100F00000C4800886628F0DB68200A4908800AE05F
:100F100000200749074A128821F812000548008876
:100F2000401C04490880034800886E28F0DB7047A5
:100F3000000000681000002001201C49A1F84C00AE
:100F4000A1F84E00A1F8CC00A1F8CE000020A1F835
:100F50004C00A1F84E00A1F8CC00A1F8CE00102062
:100F6000134908800AE001201049114A128821F82B
:100F700012000F480088401C0D4908800C4800886A
:100F80002028F0DB50200A4908800AE001200749A8
:100F9000074A128821F8120005480088401C0449BD
:100FA0000880034800886028F0DB70470000006874
:100FB0001000002010B5FFF7BFFF0120084908808E
:100FC00006E000F00FF806480088401C044908803D
:100FD000034800880228F4DDFFF748FF10BD000039
:100FE0001000002010B50820AF4908800DE0012056
:100FF000AE49AD4A128821F812001E2000F094FE7E
:10100000A9480088401CA8490880A74800881028E3
:10101000EDDB0020A44908800DE00120A349A24A8D
:10102000128821F812001E2000F07EFE9E480088E3
:10103000401C9D4908809C4800880828EDDB202042
:10104000994908800DE001209849974A128821F8B3
:1010500012001E2000F068FE93480088401C924950
:101060000880914800882628EDDB28208E490880DA
:101070000DE001208D498C4A128821F812001E20B3
:1010800000F052FE88480088401C87490880864846
:1010900000882E28EDDB4820834908800DE00021E0
:1010A0008248814A128820F812101E2000F03CFE6F
:1010B0007D480088401C7C4908807B480088502877
:1010C000EDDB4020784908800DE000207749764A22
:1010D000128821F812001E2000F026FE72480088B7
:1010E000401C71490880704800884828EDDB60206A
:1010F0006D4908800DE000206C496B4A128821F888
:1011000012001E2000F010FE67480088401C66494F
:101110000880654800886628EDDB68206249088001
:101120000DE000216148604A128820F812101E204C
:1011300000F0FAFD5C480088401C5B4908805A4872
:1011400000886E28EDDB0820574908800DE000215B
:101150005648554A128820F812101E2000F0E4FD6F
:1011600051480088401C504908804F48008810288A
:10117000EDDB00204C4908800DE000204B494A4A35
:10118000128821F812001E2000F0CEFD464800888B
:10119000401C45490880444800880828EDDB202091
:1011A000414908800DE0002040493F4A128821F85B
:1011B00012001E2000F0B8FD3B480088401C3A4950
:1011C0000880394800882628EDDB28203649088029
:1011D0000DE000203549344A128821F812001E2003
:1011E00000F0A2FD30480088401C2F4908802E489E
:1011F00000882E28EDDB48202B4908800DE00121D6
:101200002A48294A128820F812101E2000F08CFD6E
:1012100025480088401C244908802348008850281D
:10122000EDDB4020204908800DE001201F491E4AC7
:10123000128821F812001E2000F076FD1A4800885E
:10124000401C19490880184800884828EDDB6020B8
:10125000154908800DE001211448134A128820F82E
:1012600012101E2000F060FD0F480088401C0E493F
:1012700008800D4800886628EDDB68200A49088050
:101280000DE001210948084A128820F812101E209A
:1012900000F04AFD04480088401C034908800248C9
:1012A00000886E28EDDB10BD1000002000000068F3
:1012B00010B50446204600F015FD0448006800F013
:1012C0001DFE03A000F012FC10BD0000280000204D
:1012D0004C69737420496E697469616C697A6174D0
:1012E000696F6E205375636365737366756C210D4A
:1012F0000A00000000BFFEE77047000070B5002143
:1013000000230F22C4781CB3174C246804F4E06453
:10131000C4F5E064C4F30721C1F10404E3B20A4157
:1013200044789C40E1B28478144021430C07210E9C
:101330000E4C05786155047804F01F050124AC407B
:1013400005786D11AD0005F1E025C5F8004109E013
:10135000047804F01F050124AC40054D0678761191
:1013600045F8264070BD00000CED00E000E400E010
:1013700080E100E002490143024A11607047000029
:101380000000FA050CED00E07047000029B1064AA4
:1013900012680243044B1A6004E0034A1268824355
:1013A000014B1A60704700003038024029B1064AEC
:1013B00012680243044B1A6004E0034A1268824335
:1013C000014B1A60704700003838024029B1064AC4
:1013D00012680243044B1A6004E0034A1268824315
:1013E000014B1A60704700004038024029B1064A9C
:1013F00012680243044B1A6004E0034A12688243F5
:10140000014B1A60704700002038024029B1064A9B
:1014100012680243044B1A6004E0034A12688243D4
:10142000014B1A60704700004438024029B1064A57
:1014300012680243044B1A6004E0034A12688243B4
:10144000014B1A607047000024380240F0B50021BB
:1014500000220024022500260223324F3F6807F0B5
:101460000C0121B1042905D0082937D105E02E4F00
:10147000076036E02D4F076033E02A4F3F1F3F687B
:10148000C7F38056274F3F1F3F6807F03F036EB1F9
:10149000264FB7FBF3F7DFF88CC0ACF1040CDCF897
:1014A00000C0CCF3881C07FB0CF40CE01E4FB7FB0C
:1014B000F3F7DFF870C0ACF1040CDCF800C0CCF33B
:1014C000881C07FB0CF4174F3F1F3F68C7F3014709
:1014D0007F1C7D00B4FBF5F7076002E0124F076048
:1014E00000BF00BF0F4F3F6807F0F0010909104F20
:1014F0007A5C0768D74047600A4F3F6807F4E051BD
:10150000890A0B4F7A5C4768D7408760054F3F6870
:1015100007F46041490B064F7A5C4768D740C760C3
:10152000F0BD0000083802400024F40000127A00E8
:101530000000002030B503460C461546002206E0A8
:10154000184600F007F844F822001B1D521CAA425E
:10155000F6D330BD01460868704770470CB50020CF
:10156000019000902D48006840F480302B490860BD
:1015700000BF2A48006800F4003000900198401C29
:101580000190009818B90198B0F5A06FF1D12348E7
:10159000006800F4003010B10120009001E000204C
:1015A00000900098012838D11C48083000681B4979
:1015B000083108600846006840F4004008600846AA
:1015C000006840F4A05008601548091F0860081F13
:1015D000006840F08070091F086000BF0F48006875
:1015E00000F000700028F9D040F203700D49086047
:1015F0000A480830006820F00300084908310860F4
:101600000846006840F00200086000BF0348083048
:10161000006800F00C000828F8D10CBD003802402A
:10162000083C4005003C024010B51248006840F0FC
:1016300001001049086000200E49083108600D487B
:1016400000680D4908400B4908600C48091D0860F6
:10165000081F006820F48020091F08600020054949
:101660000C310860FFF77AFF4FF000600449086012
:1016700010BD000000380240FFFFF6FE10300024CD
:1016800008ED00E010B50121134800F03AF80128F8
:1016900020D10121104800F025F810480068401CB6
:1016A0000E49086008460068052804D104210C484A
:1016B000FFF7E1FA07E0094800680A2803DB042184
:1016C0000748FFF7D6FA054800680A2802DB002021
:1016D0000249086010BD0000000400401400002012
:1016E000000C0240CA430282704721B1028842F0D6
:1016F0000102028004E002884FF6FE731A40028065
:10170000704730B50246002000230024158A05EA00
:101710000103958905EA010413B10CB1012000E031
:10172000002030BD1AB183890B43838102E0838995
:101730008B4383817047000000220288184B984237
:101740000ED0184B98420BD0B0F1804F08D0164BFA
:10175000984205D0154B984202D0154B984204D1BF
:101760004FF68F731A404B881A43124B984207D09A
:10177000114B984204D04FF6FF431A400B891A438D
:1017800002804B68C3620B880385054B984202D0E8
:10179000044B984201D18B7A0386012383827047E0
:1017A0000000014000040140000400400008004027
:1017B000000C004000100040001400401FB5012143
:1017C0000220FFF703FE47F22F5002906320ADF88E
:1017D00004000020ADF80600ADF80C0001A90E4889
:1017E000FFF7AAFF012211460B48FFF79BFF0121DB
:1017F0000948FFF77AFF1D208DF8000001208DF8C1
:10180000010003208DF8020001208DF803006846D6
:10181000FFF774FD1FBD00000004004070B540F2EA
:101820002551384800F0A0F800286AD036480088D2
:10183000002866D1334800F051F904462F2C09D016
:101840003249334A12888C5431480088401C304950
:10185000088056E001202C4908802C4880782D49CA
:10186000087008460078A0F130012BA000F03EF986
:10187000284800783038052802D1FFF79BFB3BE071
:10188000244800783038012806D100F069FA24484D
:10189000006800F033FB2FE01E4800783038022843
:1018A00005D12048016820A000F020F924E0194863
:1018B00000783038042816D1194800681E49096894
:1018C000884219D00822164801680120FEF7CAFD97
:1018D000054613480068C0681149086065B917A03B
:1018E00000F004F908E00B4800783038032803D1F1
:1018F0000B48006800F002FB0020054908800249FF
:10190000088070BD001001401E000020380000203B
:10191000200000201C0000206B657925640D0A0062
:10192000280000202400002043414E5F52585F4EA3
:10193000554D3A25640D0A002C00002073656E6435
:10194000207375636365737366756C2E0D0A0000F2
:1019500021B1828942F40052828104E082894DF6ED
:10196000FF731A408281704770B50246002400233D
:101970000025002040F66A16B14200D100BFC1F335
:10198000421501F01F03012606FA03F3012D02D1CF
:101990009689334006E0022D02D1168A334001E0D9
:1019A000968A33400C12012606FA04F41688344055
:1019B00013B10CB1012000E0002070BDF0B503466A
:1019C000002400260025002040F66A17B94200D105
:1019D00000BF1846C1F3421401F01F06012707FAA1
:1019E00006F5012C01D10C3004E0022C01D110309D
:1019F00000E014301AB107682F43076002E007685F
:101A0000AF430760F0BD00002DE9FF4705460E46D5
:101A10000024A14600BFA046B08900B100BF2C8AB7
:101A200024F44054F08804432C82AC8941F20C60C9
:101A30008443B08831890843718908430443AC81E9
:101A4000AC8A24F44074B0890443AC826846FFF742
:101A5000FDFC2048854202D01F48854202D1DDF8B6
:101A60000C9001E0DDF80890A88900F4004040B136
:101A700009EBC90000EB091031684900B0FBF1F730
:101A800007E009EBC90000EB091031688900B0FBE1
:101A9000F1F76420B7FBF0F004012009642101FB99
:101AA0001078A88900F4004040B1322000EBC80053
:101AB000B0FBF1F000F00700044308E0322000EB37
:101AC00008106421B0FBF1F000F00F0004432C81FA
:101AD000BDE8FF87001001400014014001468888DE
:101AE000C0F30800704700BFFEE700000FB4054BCD
:101AF00010B503A9044A029800F018F810BC5DF86C
:101B000014FB0000AD1D01081800002002E008C809
:101B1000121F08C1002AFAD170477047002001E067
:101B200001C1121F002AFBD1704700002DE9FF4FB1
:101B30008BB09A460F460546002606E025280BD0B6
:101B400052460D9990476D1C761C28780028F5D1D7
:101B50000FB03046BDE8F08F0024A0460122604956
:101B600000E0044315F8013F203B02FA03F008426D
:101B7000F7D128782E2817D115F8010F44F0040466
:101B80002A280ED06FF02F022878A0F13001092901
:101B90000AD808EB880102EB410100EB01086D1C3B
:101BA000F2E757F8048B6D1C287869283ED006DCD4
:101BB0000028CDD063280BD0642804D136E07328E8
:101BC00010D075284BD052460D999047761C85E071
:101BD00017F8040B8DF8000000208DF80100E9468D
:101BE000012003E057F8049B4FF0FF3061074FF0EE
:101BF000000401D40AE0641C44450DDA8442FADB97
:101C000019F804100029F6D106E0641C8442FCDBBC
:101C100019F804100029F8D1264404E019F8010B42
:101C200052460D999047641EF8D257E001CF4FF00D
:101C30000A0B002802DA40422D2102E0210504D5DA
:101C40002B218DF82410012103E0E10705D020218C
:101C5000F7E70DF1200908910CE00021F9E701CF29
:101C60004FF00A0BF9E75946FEF7A8FA01F13002E6
:101C700009F8012D0028F6D1ADEB090000F1200B89
:101C8000600701D44FF00108D84502DDA8EB0B0036
:101C900000E000208046002406E009A85246005DCE
:101CA0000D999047641C761C08988442F5DB04E08B
:101CB000302052460D999047761CB8F10001A8F1EA
:101CC0000108F5DC05E019F8010B52460D99904723
:101CD000761CBBF10001ABF1010BF4DC6D1C34E7A9
:101CE000092801002DE9F0410546102000F0D0F848
:101CF00080460746012606E0102000F0C9F8044699
:101D0000E7602746761C681EB042F5DAC8F80C700A
:101D10000348C0F800800348C0F80080BDE8F081A7
:101D20002C00002028000020014640F6B8324A432B
:101D30004FF0E0235A6100229A6101221A6100BF2C
:101D40004FF0E022106900F001021AB100F4803275
:101D5000002AF5D000224FF0E0231A619A61704703
:101D600010B50848006808490968884203D107A0EF
:101D7000FFF7BCFE04E003480068C0680149086042
:101D800010BD0000280000202C000020546865725F
:101D900065206973206E6F206461746120696E2014
:101DA000746865204C6973742E0D0A0000BF054AE3
:101DB000128802F04002002AF9D0C2B2014B9A8088
:101DC000704700000010014010B502460F4B1B6821
:101DD000DB680F4C2468A34205D10D4B1B68DB6800
:101DE0000B4C23600BE0094B1B689960002004E05A
:101DF000135C064C24682354401C0828F8DB034B72
:101E00001B68DB68014C236010BD00002C00002023
:101E1000280000201948006819490860FEF72EFFC5
:101E2000FFF7CCFCFEF775FE0020FEF781FA4FF4B9
:101E3000E13000F07FF8FFF7BDF8FEF735FAFEF766
:101E40009BFE2020FFF734FA0EA0FFF74FFE13E0B1
:101E50000D4800680D49096888420DD00A49096893
:101E6000098988B2082208490968FEF7FBFA064882
:101E70000068C06804490860EAE700000000010843
:101E800008ED00E0312E3100280000202C00002059
:101E9000F0B50B30154D20F007010024144A0FE077
:101EA00003688B420BD38B4205D95E1A43184768EF
:101EB000C3E9006700E04368136002C004E0021D4C
:101EC00010680028ECD12046002802D1286808B10B
:101ED0000020F0BD064A07481060074A121A22F097
:101EE0000702C0E9002401202860D7E73400002061
:101EF00030000020140100201005002010B5044619
:101F000009E008480068844200D105E0217806A075
:101F1000FFF7ECFDE468F4E700BF05A0FFF7E6FD7E
:101F200010BD00002C0000202D3E256400000000A4
:101F30000D0A000010B588B0044601210846FFF7DD
:101F400025FA01211020FFF761FA0722092126480E
:101F5000FEF76CFE07220A212348FEF767FE4FF4C6
:101F6000C060069002208DF81C008DF81D00002036
:101F70008DF81E0001208DF81F0006A91A48FEF7F3
:101F80000DFE02940020ADF80C00ADF80E00ADF887
:101F90001000ADF814000C20ADF8120002A913488F
:101FA000FFF732FD012240F225511048FFF706FDF0
:101FB00001210E48FFF7CCFC4FF4A060FFF7DAF9DF
:101FC00025208DF8040001208DF805008DF806000D
:101FD0008DF8070001A8FFF791F901210348FFF7E9
:101FE000B7FC08B010BD0000000002400010014026
:101FF0001020010800000020380000000C1B010820
:102000004820010838000020D80800001C1B0108E7
:10201000000000000102030401020304060708098E
:1020200000000000000000000000000000000000B0
:1020300000000000000000000000000000000000A0
:08204000000000000000000098
:040000050801018568
:00000001FF
